{
  "contractName": "BookStore",
  "abi": [
    {
      "inputs": [],
      "stateMutability": "nonpayable",
      "type": "constructor"
    },
    {
      "anonymous": false,
      "inputs": [
        {
          "indexed": true,
          "internalType": "address",
          "name": "account",
          "type": "address"
        },
        {
          "indexed": true,
          "internalType": "address",
          "name": "operator",
          "type": "address"
        },
        {
          "indexed": false,
          "internalType": "bool",
          "name": "approved",
          "type": "bool"
        }
      ],
      "name": "ApprovalForAll",
      "type": "event"
    },
    {
      "anonymous": false,
      "inputs": [
        {
          "indexed": true,
          "internalType": "address",
          "name": "operator",
          "type": "address"
        },
        {
          "indexed": true,
          "internalType": "address",
          "name": "from",
          "type": "address"
        },
        {
          "indexed": true,
          "internalType": "address",
          "name": "to",
          "type": "address"
        },
        {
          "indexed": false,
          "internalType": "uint256[]",
          "name": "ids",
          "type": "uint256[]"
        },
        {
          "indexed": false,
          "internalType": "uint256[]",
          "name": "values",
          "type": "uint256[]"
        }
      ],
      "name": "TransferBatch",
      "type": "event"
    },
    {
      "anonymous": false,
      "inputs": [
        {
          "indexed": true,
          "internalType": "address",
          "name": "operator",
          "type": "address"
        },
        {
          "indexed": true,
          "internalType": "address",
          "name": "from",
          "type": "address"
        },
        {
          "indexed": true,
          "internalType": "address",
          "name": "to",
          "type": "address"
        },
        {
          "indexed": false,
          "internalType": "uint256",
          "name": "id",
          "type": "uint256"
        },
        {
          "indexed": false,
          "internalType": "uint256",
          "name": "value",
          "type": "uint256"
        }
      ],
      "name": "TransferSingle",
      "type": "event"
    },
    {
      "anonymous": false,
      "inputs": [
        {
          "indexed": false,
          "internalType": "string",
          "name": "value",
          "type": "string"
        },
        {
          "indexed": true,
          "internalType": "uint256",
          "name": "id",
          "type": "uint256"
        }
      ],
      "name": "URI",
      "type": "event"
    },
    {
      "inputs": [
        {
          "internalType": "address",
          "name": "account",
          "type": "address"
        },
        {
          "internalType": "uint256",
          "name": "id",
          "type": "uint256"
        }
      ],
      "name": "balanceOf",
      "outputs": [
        {
          "internalType": "uint256",
          "name": "",
          "type": "uint256"
        }
      ],
      "stateMutability": "view",
      "type": "function"
    },
    {
      "inputs": [
        {
          "internalType": "address[]",
          "name": "accounts",
          "type": "address[]"
        },
        {
          "internalType": "uint256[]",
          "name": "ids",
          "type": "uint256[]"
        }
      ],
      "name": "balanceOfBatch",
      "outputs": [
        {
          "internalType": "uint256[]",
          "name": "",
          "type": "uint256[]"
        }
      ],
      "stateMutability": "view",
      "type": "function"
    },
    {
      "inputs": [
        {
          "internalType": "address",
          "name": "account",
          "type": "address"
        },
        {
          "internalType": "address",
          "name": "operator",
          "type": "address"
        }
      ],
      "name": "isApprovedForAll",
      "outputs": [
        {
          "internalType": "bool",
          "name": "",
          "type": "bool"
        }
      ],
      "stateMutability": "view",
      "type": "function"
    },
    {
      "inputs": [
        {
          "internalType": "address",
          "name": "from",
          "type": "address"
        },
        {
          "internalType": "address",
          "name": "to",
          "type": "address"
        },
        {
          "internalType": "uint256[]",
          "name": "ids",
          "type": "uint256[]"
        },
        {
          "internalType": "uint256[]",
          "name": "amounts",
          "type": "uint256[]"
        },
        {
          "internalType": "bytes",
          "name": "data",
          "type": "bytes"
        }
      ],
      "name": "safeBatchTransferFrom",
      "outputs": [],
      "stateMutability": "nonpayable",
      "type": "function"
    },
    {
      "inputs": [
        {
          "internalType": "address",
          "name": "from",
          "type": "address"
        },
        {
          "internalType": "address",
          "name": "to",
          "type": "address"
        },
        {
          "internalType": "uint256",
          "name": "id",
          "type": "uint256"
        },
        {
          "internalType": "uint256",
          "name": "amount",
          "type": "uint256"
        },
        {
          "internalType": "bytes",
          "name": "data",
          "type": "bytes"
        }
      ],
      "name": "safeTransferFrom",
      "outputs": [],
      "stateMutability": "nonpayable",
      "type": "function"
    },
    {
      "inputs": [
        {
          "internalType": "address",
          "name": "operator",
          "type": "address"
        },
        {
          "internalType": "bool",
          "name": "approved",
          "type": "bool"
        }
      ],
      "name": "setApprovalForAll",
      "outputs": [],
      "stateMutability": "nonpayable",
      "type": "function"
    },
    {
      "inputs": [
        {
          "internalType": "bytes4",
          "name": "interfaceId",
          "type": "bytes4"
        }
      ],
      "name": "supportsInterface",
      "outputs": [
        {
          "internalType": "bool",
          "name": "",
          "type": "bool"
        }
      ],
      "stateMutability": "view",
      "type": "function"
    },
    {
      "inputs": [
        {
          "internalType": "uint256",
          "name": "",
          "type": "uint256"
        }
      ],
      "name": "uri",
      "outputs": [
        {
          "internalType": "string",
          "name": "",
          "type": "string"
        }
      ],
      "stateMutability": "view",
      "type": "function"
    },
    {
      "inputs": [
        {
          "internalType": "uint256",
          "name": "_quantity",
          "type": "uint256"
        }
      ],
      "name": "puslish",
      "outputs": [],
      "stateMutability": "nonpayable",
      "type": "function"
    }
  ],
  "bytecode": "0x60806040523480156200001157600080fd5b5060405180606001604052806021815260200162002977602191396200003d816200004460201b60201c565b5062000175565b80600290805190602001906200005c92919062000060565b5050565b8280546200006e9062000110565b90600052602060002090601f016020900481019282620000925760008555620000de565b82601f10620000ad57805160ff1916838001178555620000de565b82800160010185558215620000de579182015b82811115620000dd578251825591602001919060010190620000c0565b5b509050620000ed9190620000f1565b5090565b5b808211156200010c576000816000905550600101620000f2565b5090565b600060028204905060018216806200012957607f821691505b6020821081141562000140576200013f62000146565b5b50919050565b7f4e487b7100000000000000000000000000000000000000000000000000000000600052602260045260246000fd5b6127f280620001856000396000f3fe608060405234801561001057600080fd5b50600436106100925760003560e01c80632eb2c2d6116100665780632eb2c2d6146101435780634e1273f41461015f578063a22cb4651461018f578063e985e9c5146101ab578063f242432a146101db57610092565b8062fdd58e1461009757806301ffc9a7146100c75780630e89341c146100f7578063109fffa814610127575b600080fd5b6100b160048036038101906100ac9190611975565b6101f7565b6040516100be91906122d6565b60405180910390f35b6100e160048036038101906100dc9190611a1d565b6102c0565b6040516100ee9190612139565b60405180910390f35b610111600480360381019061010c9190611a6f565b6103a2565b60405161011e9190612154565b60405180910390f35b610141600480360381019061013c9190611a6f565b610436565b005b61015d600480360381019061015891906117eb565b610455565b005b610179600480360381019061017491906119b1565b61084b565b60405161018691906120e0565b60405180910390f35b6101a960048036038101906101a49190611939565b6109fc565b005b6101c560048036038101906101c091906117af565b610b7d565b6040516101d29190612139565b60405180910390f35b6101f560048036038101906101f091906118aa565b610c11565b005b60008073ffffffffffffffffffffffffffffffffffffffff168373ffffffffffffffffffffffffffffffffffffffff161415610268576040517f08c379a000000000000000000000000000000000000000000000000000000000815260040161025f906121b6565b60405180910390fd5b60008083815260200190815260200160002060008473ffffffffffffffffffffffffffffffffffffffff1673ffffffffffffffffffffffffffffffffffffffff16815260200190815260200160002054905092915050565b60007fd9b67a26000000000000000000000000000000000000000000000000000000007bffffffffffffffffffffffffffffffffffffffffffffffffffffffff1916827bffffffffffffffffffffffffffffffffffffffffffffffffffffffff1916148061038b57507f0e89341c000000000000000000000000000000000000000000000000000000007bffffffffffffffffffffffffffffffffffffffffffffffffffffffff1916827bffffffffffffffffffffffffffffffffffffffffffffffffffffffff1916145b8061039b575061039a82610f29565b5b9050919050565b6060600280546103b190612584565b80601f01602080910402602001604051908101604052809291908181526020018280546103dd90612584565b801561042a5780601f106103ff5761010080835404028352916020019161042a565b820191906000526020600020905b81548152906001019060200180831161040d57829003601f168201915b50505050509050919050565b6104523360018360405180602001604052806000815250610f93565b50565b8151835114610499576040517f08c379a000000000000000000000000000000000000000000000000000000000815260040161049090612296565b60405180910390fd5b600073ffffffffffffffffffffffffffffffffffffffff168473ffffffffffffffffffffffffffffffffffffffff161415610509576040517f08c379a0000000000000000000000000000000000000000000000000000000008152600401610500906121f6565b60405180910390fd5b610511611129565b73ffffffffffffffffffffffffffffffffffffffff168573ffffffffffffffffffffffffffffffffffffffff161480610557575061055685610551611129565b610b7d565b5b610596576040517f08c379a000000000000000000000000000000000000000000000000000000000815260040161058d90612216565b60405180910390fd5b60006105a0611129565b90506105b0818787878787611131565b60005b84518110156107b65760008582815181106105f7577f4e487b7100000000000000000000000000000000000000000000000000000000600052603260045260246000fd5b60200260200101519050600085838151811061063c577f4e487b7100000000000000000000000000000000000000000000000000000000600052603260045260246000fd5b60200260200101519050600080600084815260200190815260200160002060008b73ffffffffffffffffffffffffffffffffffffffff1673ffffffffffffffffffffffffffffffffffffffff168152602001908152602001600020549050818110156106dd576040517f08c379a00000000000000000000000000000000000000000000000000000000081526004016106d490612236565b60405180910390fd5b81816106e9919061249a565b60008085815260200190815260200160002060008c73ffffffffffffffffffffffffffffffffffffffff1673ffffffffffffffffffffffffffffffffffffffff168152602001908152602001600020819055508160008085815260200190815260200160002060008b73ffffffffffffffffffffffffffffffffffffffff1673ffffffffffffffffffffffffffffffffffffffff168152602001908152602001600020600082825461079b9190612444565b92505081905550505050806107af906125b6565b90506105b3565b508473ffffffffffffffffffffffffffffffffffffffff168673ffffffffffffffffffffffffffffffffffffffff168273ffffffffffffffffffffffffffffffffffffffff167f4a39dc06d4c0dbc64b70af90fd698a233a518aa5d07e595d983b8c0526c8f7fb878760405161082d929190612102565b60405180910390a4610843818787878787611139565b505050505050565b60608151835114610891576040517f08c379a000000000000000000000000000000000000000000000000000000000815260040161088890612276565b60405180910390fd5b6000835167ffffffffffffffff8111156108d4577f4e487b7100000000000000000000000000000000000000000000000000000000600052604160045260246000fd5b6040519080825280602002602001820160405280156109025781602001602082028036833780820191505090505b50905060005b84518110156109f15761099b85828151811061094d577f4e487b7100000000000000000000000000000000000000000000000000000000600052603260045260246000fd5b602002602001015185838151811061098e577f4e487b7100000000000000000000000000000000000000000000000000000000600052603260045260246000fd5b60200260200101516101f7565b8282815181106109d4577f4e487b7100000000000000000000000000000000000000000000000000000000600052603260045260246000fd5b602002602001018181525050806109ea906125b6565b9050610908565b508091505092915050565b8173ffffffffffffffffffffffffffffffffffffffff16610a1b611129565b73ffffffffffffffffffffffffffffffffffffffff161415610a72576040517f08c379a0000000000000000000000000000000000000000000000000000000008152600401610a6990612256565b60405180910390fd5b8060016000610a7f611129565b73ffffffffffffffffffffffffffffffffffffffff1673ffffffffffffffffffffffffffffffffffffffff16815260200190815260200160002060008473ffffffffffffffffffffffffffffffffffffffff1673ffffffffffffffffffffffffffffffffffffffff16815260200190815260200160002060006101000a81548160ff0219169083151502179055508173ffffffffffffffffffffffffffffffffffffffff16610b2c611129565b73ffffffffffffffffffffffffffffffffffffffff167f17307eab39ab6107e8899845ad3d59bd9653f200f220920489ca2b5937696c3183604051610b719190612139565b60405180910390a35050565b6000600160008473ffffffffffffffffffffffffffffffffffffffff1673ffffffffffffffffffffffffffffffffffffffff16815260200190815260200160002060008373ffffffffffffffffffffffffffffffffffffffff1673ffffffffffffffffffffffffffffffffffffffff16815260200190815260200160002060009054906101000a900460ff16905092915050565b600073ffffffffffffffffffffffffffffffffffffffff168473ffffffffffffffffffffffffffffffffffffffff161415610c81576040517f08c379a0000000000000000000000000000000000000000000000000000000008152600401610c78906121f6565b60405180910390fd5b610c89611129565b73ffffffffffffffffffffffffffffffffffffffff168573ffffffffffffffffffffffffffffffffffffffff161480610ccf5750610cce85610cc9611129565b610b7d565b5b610d0e576040517f08c379a0000000000000000000000000000000000000000000000000000000008152600401610d05906121d6565b60405180910390fd5b6000610d18611129565b9050610d38818787610d2988611309565b610d3288611309565b87611131565b600080600086815260200190815260200160002060008873ffffffffffffffffffffffffffffffffffffffff1673ffffffffffffffffffffffffffffffffffffffff16815260200190815260200160002054905083811015610dcf576040517f08c379a0000000000000000000000000000000000000000000000000000000008152600401610dc690612236565b60405180910390fd5b8381610ddb919061249a565b60008087815260200190815260200160002060008973ffffffffffffffffffffffffffffffffffffffff1673ffffffffffffffffffffffffffffffffffffffff168152602001908152602001600020819055508360008087815260200190815260200160002060008873ffffffffffffffffffffffffffffffffffffffff1673ffffffffffffffffffffffffffffffffffffffff1681526020019081526020016000206000828254610e8d9190612444565b925050819055508573ffffffffffffffffffffffffffffffffffffffff168773ffffffffffffffffffffffffffffffffffffffff168373ffffffffffffffffffffffffffffffffffffffff167fc3d58168c5ae7397731d063d5bbf3d657854427343f4c083240f7aacaa2d0f628888604051610f0a9291906122f1565b60405180910390a4610f208288888888886113cf565b50505050505050565b60007f01ffc9a7000000000000000000000000000000000000000000000000000000007bffffffffffffffffffffffffffffffffffffffffffffffffffffffff1916827bffffffffffffffffffffffffffffffffffffffffffffffffffffffff1916149050919050565b600073ffffffffffffffffffffffffffffffffffffffff168473ffffffffffffffffffffffffffffffffffffffff161415611003576040517f08c379a0000000000000000000000000000000000000000000000000000000008152600401610ffa906122b6565b60405180910390fd5b600061100d611129565b905061102e8160008761101f88611309565b61102888611309565b87611131565b8260008086815260200190815260200160002060008773ffffffffffffffffffffffffffffffffffffffff1673ffffffffffffffffffffffffffffffffffffffff168152602001908152602001600020600082825461108d9190612444565b925050819055508473ffffffffffffffffffffffffffffffffffffffff16600073ffffffffffffffffffffffffffffffffffffffff168273ffffffffffffffffffffffffffffffffffffffff167fc3d58168c5ae7397731d063d5bbf3d657854427343f4c083240f7aacaa2d0f62878760405161110b9291906122f1565b60405180910390a4611122816000878787876113cf565b5050505050565b600033905090565b505050505050565b6111588473ffffffffffffffffffffffffffffffffffffffff1661159f565b15611301578373ffffffffffffffffffffffffffffffffffffffff1663bc197c8187878686866040518663ffffffff1660e01b815260040161119e95949392919061201e565b602060405180830381600087803b1580156111b857600080fd5b505af19250505080156111e957506040513d601f19601f820116820180604052508101906111e69190611a46565b60015b611278576111f56126aa565b80611200575061123d565b806040517f08c379a00000000000000000000000000000000000000000000000000000000081526004016112349190612154565b60405180910390fd5b6040517f08c379a000000000000000000000000000000000000000000000000000000000815260040161126f90612176565b60405180910390fd5b63bc197c8160e01b7bffffffffffffffffffffffffffffffffffffffffffffffffffffffff1916817bffffffffffffffffffffffffffffffffffffffffffffffffffffffff1916146112ff576040517f08c379a00000000000000000000000000000000000000000000000000000000081526004016112f690612196565b60405180910390fd5b505b505050505050565b60606000600167ffffffffffffffff81111561134e577f4e487b7100000000000000000000000000000000000000000000000000000000600052604160045260246000fd5b60405190808252806020026020018201604052801561137c5781602001602082028036833780820191505090505b50905082816000815181106113ba577f4e487b7100000000000000000000000000000000000000000000000000000000600052603260045260246000fd5b60200260200101818152505080915050919050565b6113ee8473ffffffffffffffffffffffffffffffffffffffff1661159f565b15611597578373ffffffffffffffffffffffffffffffffffffffff1663f23a6e6187878686866040518663ffffffff1660e01b8152600401611434959493929190612086565b602060405180830381600087803b15801561144e57600080fd5b505af192505050801561147f57506040513d601f19601f8201168201806040525081019061147c9190611a46565b60015b61150e5761148b6126aa565b8061149657506114d3565b806040517f08c379a00000000000000000000000000000000000000000000000000000000081526004016114ca9190612154565b60405180910390fd5b6040517f08c379a000000000000000000000000000000000000000000000000000000000815260040161150590612176565b60405180910390fd5b63f23a6e6160e01b7bffffffffffffffffffffffffffffffffffffffffffffffffffffffff1916817bffffffffffffffffffffffffffffffffffffffffffffffffffffffff191614611595576040517f08c379a000000000000000000000000000000000000000000000000000000000815260040161158c90612196565b60405180910390fd5b505b505050505050565b600080823b905060008111915050919050565b60006115c56115c08461234b565b61231a565b905080838252602082019050828560208602820111156115e457600080fd5b60005b8581101561161457816115fa88826116c8565b8452602084019350602083019250506001810190506115e7565b5050509392505050565b600061163161162c84612377565b61231a565b9050808382526020820190508285602086028201111561165057600080fd5b60005b858110156116805781611666888261179a565b845260208401935060208301925050600181019050611653565b5050509392505050565b600061169d611698846123a3565b61231a565b9050828152602081018484840111156116b557600080fd5b6116c0848285612542565b509392505050565b6000813590506116d781612760565b92915050565b600082601f8301126116ee57600080fd5b81356116fe8482602086016115b2565b91505092915050565b600082601f83011261171857600080fd5b813561172884826020860161161e565b91505092915050565b60008135905061174081612777565b92915050565b6000813590506117558161278e565b92915050565b60008151905061176a8161278e565b92915050565b600082601f83011261178157600080fd5b813561179184826020860161168a565b91505092915050565b6000813590506117a9816127a5565b92915050565b600080604083850312156117c257600080fd5b60006117d0858286016116c8565b92505060206117e1858286016116c8565b9150509250929050565b600080600080600060a0868803121561180357600080fd5b6000611811888289016116c8565b9550506020611822888289016116c8565b945050604086013567ffffffffffffffff81111561183f57600080fd5b61184b88828901611707565b935050606086013567ffffffffffffffff81111561186857600080fd5b61187488828901611707565b925050608086013567ffffffffffffffff81111561189157600080fd5b61189d88828901611770565b9150509295509295909350565b600080600080600060a086880312156118c257600080fd5b60006118d0888289016116c8565b95505060206118e1888289016116c8565b94505060406118f28882890161179a565b93505060606119038882890161179a565b925050608086013567ffffffffffffffff81111561192057600080fd5b61192c88828901611770565b9150509295509295909350565b6000806040838503121561194c57600080fd5b600061195a858286016116c8565b925050602061196b85828601611731565b9150509250929050565b6000806040838503121561198857600080fd5b6000611996858286016116c8565b92505060206119a78582860161179a565b9150509250929050565b600080604083850312156119c457600080fd5b600083013567ffffffffffffffff8111156119de57600080fd5b6119ea858286016116dd565b925050602083013567ffffffffffffffff811115611a0757600080fd5b611a1385828601611707565b9150509250929050565b600060208284031215611a2f57600080fd5b6000611a3d84828501611746565b91505092915050565b600060208284031215611a5857600080fd5b6000611a668482850161175b565b91505092915050565b600060208284031215611a8157600080fd5b6000611a8f8482850161179a565b91505092915050565b6000611aa48383612000565b60208301905092915050565b611ab9816124ce565b82525050565b6000611aca826123e3565b611ad48185612411565b9350611adf836123d3565b8060005b83811015611b10578151611af78882611a98565b9750611b0283612404565b925050600181019050611ae3565b5085935050505092915050565b611b26816124e0565b82525050565b6000611b37826123ee565b611b418185612422565b9350611b51818560208601612551565b611b5a8161268c565b840191505092915050565b6000611b70826123f9565b611b7a8185612433565b9350611b8a818560208601612551565b611b938161268c565b840191505092915050565b6000611bab603483612433565b91507f455243313135353a207472616e7366657220746f206e6f6e204552433131353560008301527f526563656976657220696d706c656d656e7465720000000000000000000000006020830152604082019050919050565b6000611c11602883612433565b91507f455243313135353a204552433131353552656365697665722072656a6563746560008301527f6420746f6b656e730000000000000000000000000000000000000000000000006020830152604082019050919050565b6000611c77602b83612433565b91507f455243313135353a2062616c616e636520717565727920666f7220746865207a60008301527f65726f20616464726573730000000000000000000000000000000000000000006020830152604082019050919050565b6000611cdd602983612433565b91507f455243313135353a2063616c6c6572206973206e6f74206f776e6572206e6f7260008301527f20617070726f76656400000000000000000000000000000000000000000000006020830152604082019050919050565b6000611d43602583612433565b91507f455243313135353a207472616e7366657220746f20746865207a65726f20616460008301527f64726573730000000000000000000000000000000000000000000000000000006020830152604082019050919050565b6000611da9603283612433565b91507f455243313135353a207472616e736665722063616c6c6572206973206e6f742060008301527f6f776e6572206e6f7220617070726f76656400000000000000000000000000006020830152604082019050919050565b6000611e0f602a83612433565b91507f455243313135353a20696e73756666696369656e742062616c616e636520666f60008301527f72207472616e73666572000000000000000000000000000000000000000000006020830152604082019050919050565b6000611e75602983612433565b91507f455243313135353a2073657474696e6720617070726f76616c2073746174757360008301527f20666f722073656c6600000000000000000000000000000000000000000000006020830152604082019050919050565b6000611edb602983612433565b91507f455243313135353a206163636f756e747320616e6420696473206c656e67746860008301527f206d69736d6174636800000000000000000000000000000000000000000000006020830152604082019050919050565b6000611f41602883612433565b91507f455243313135353a2069647320616e6420616d6f756e7473206c656e6774682060008301527f6d69736d617463680000000000000000000000000000000000000000000000006020830152604082019050919050565b6000611fa7602183612433565b91507f455243313135353a206d696e7420746f20746865207a65726f2061646472657360008301527f73000000000000000000000000000000000000000000000000000000000000006020830152604082019050919050565b61200981612538565b82525050565b61201881612538565b82525050565b600060a0820190506120336000830188611ab0565b6120406020830187611ab0565b81810360408301526120528186611abf565b905081810360608301526120668185611abf565b9050818103608083015261207a8184611b2c565b90509695505050505050565b600060a08201905061209b6000830188611ab0565b6120a86020830187611ab0565b6120b5604083018661200f565b6120c2606083018561200f565b81810360808301526120d48184611b2c565b90509695505050505050565b600060208201905081810360008301526120fa8184611abf565b905092915050565b6000604082019050818103600083015261211c8185611abf565b905081810360208301526121308184611abf565b90509392505050565b600060208201905061214e6000830184611b1d565b92915050565b6000602082019050818103600083015261216e8184611b65565b905092915050565b6000602082019050818103600083015261218f81611b9e565b9050919050565b600060208201905081810360008301526121af81611c04565b9050919050565b600060208201905081810360008301526121cf81611c6a565b9050919050565b600060208201905081810360008301526121ef81611cd0565b9050919050565b6000602082019050818103600083015261220f81611d36565b9050919050565b6000602082019050818103600083015261222f81611d9c565b9050919050565b6000602082019050818103600083015261224f81611e02565b9050919050565b6000602082019050818103600083015261226f81611e68565b9050919050565b6000602082019050818103600083015261228f81611ece565b9050919050565b600060208201905081810360008301526122af81611f34565b9050919050565b600060208201905081810360008301526122cf81611f9a565b9050919050565b60006020820190506122eb600083018461200f565b92915050565b6000604082019050612306600083018561200f565b612313602083018461200f565b9392505050565b6000604051905081810181811067ffffffffffffffff821117156123415761234061265d565b5b8060405250919050565b600067ffffffffffffffff8211156123665761236561265d565b5b602082029050602081019050919050565b600067ffffffffffffffff8211156123925761239161265d565b5b602082029050602081019050919050565b600067ffffffffffffffff8211156123be576123bd61265d565b5b601f19601f8301169050602081019050919050565b6000819050602082019050919050565b600081519050919050565b600081519050919050565b600081519050919050565b6000602082019050919050565b600082825260208201905092915050565b600082825260208201905092915050565b600082825260208201905092915050565b600061244f82612538565b915061245a83612538565b9250827fffffffffffffffffffffffffffffffffffffffffffffffffffffffffffffffff0382111561248f5761248e6125ff565b5b828201905092915050565b60006124a582612538565b91506124b083612538565b9250828210156124c3576124c26125ff565b5b828203905092915050565b60006124d982612518565b9050919050565b60008115159050919050565b60007fffffffff0000000000000000000000000000000000000000000000000000000082169050919050565b600073ffffffffffffffffffffffffffffffffffffffff82169050919050565b6000819050919050565b82818337600083830152505050565b60005b8381101561256f578082015181840152602081019050612554565b8381111561257e576000848401525b50505050565b6000600282049050600182168061259c57607f821691505b602082108114156125b0576125af61262e565b5b50919050565b60006125c182612538565b91507fffffffffffffffffffffffffffffffffffffffffffffffffffffffffffffffff8214156125f4576125f36125ff565b5b600182019050919050565b7f4e487b7100000000000000000000000000000000000000000000000000000000600052601160045260246000fd5b7f4e487b7100000000000000000000000000000000000000000000000000000000600052602260045260246000fd5b7f4e487b7100000000000000000000000000000000000000000000000000000000600052604160045260246000fd5b6000601f19601f8301169050919050565b60008160e01c9050919050565b600060443d10156126ba5761275d565b60046000803e6126cb60005161269d565b6308c379a081146126dc575061275d565b60405160043d036004823e80513d602482011167ffffffffffffffff821117156127085750505061275d565b808201805167ffffffffffffffff81111561272757505050505061275d565b8060208301013d85018111156127425750505050505061275d565b61274b8261268c565b60208401016040528296505050505050505b90565b612769816124ce565b811461277457600080fd5b50565b612780816124e0565b811461278b57600080fd5b50565b612797816124ec565b81146127a257600080fd5b50565b6127ae81612538565b81146127b957600080fd5b5056fea26469706673582212204cdf0d1aca2d14cdaef744720f67f3304fcbedac04b31e5375768cb79908bb9364736f6c6343000800003368747470733a2f2f6578616d706c652e636f6d2f6170692f7b69647d2e6a736f6e",
  "immutableReferences": {},
  "source": "// SPDX-License-Identifier: MIT\r\npragma solidity ^0.8.0;\r\n\r\nimport \"@openzeppelin/contracts/token/ERC1155/ERC1155.sol\";\r\n\r\ncontract BookStore is ERC1155{\r\n  \r\n  constructor() ERC1155(\"https://example.com/api/{id}.json\") {\r\n      \r\n  }\r\n\r\n  function puslish(uint256 _quantity) public {\r\n      _mint(msg.sender, 1, _quantity, \"\");\r\n  }\r\n  \r\n}\r\n",
  "sourcePath": "C:/Users/holyh/code/projects_Dapp/Bookstore/contracts/BookStore.sol",
  "compiler": {
    "name": "solc",
    "version": "0.8.0+commit.c7dfd78e.Emscripten.clang"
  },
  "schemaVersion": "3.4.1",
  "updatedAt": "2021-07-30T14:14:10.305Z",
  "devdoc": {
    "kind": "dev",
    "methods": {
      "balanceOf(address,uint256)": {
        "details": "See {IERC1155-balanceOf}. Requirements: - `account` cannot be the zero address."
      },
      "balanceOfBatch(address[],uint256[])": {
        "details": "See {IERC1155-balanceOfBatch}. Requirements: - `accounts` and `ids` must have the same length."
      },
      "isApprovedForAll(address,address)": {
        "details": "See {IERC1155-isApprovedForAll}."
      },
      "safeBatchTransferFrom(address,address,uint256[],uint256[],bytes)": {
        "details": "See {IERC1155-safeBatchTransferFrom}."
      },
      "safeTransferFrom(address,address,uint256,uint256,bytes)": {
        "details": "See {IERC1155-safeTransferFrom}."
      },
      "setApprovalForAll(address,bool)": {
        "details": "See {IERC1155-setApprovalForAll}."
      },
      "supportsInterface(bytes4)": {
        "details": "See {IERC165-supportsInterface}."
      },
      "uri(uint256)": {
        "details": "See {IERC1155MetadataURI-uri}. This implementation returns the same URI for *all* token types. It relies on the token type ID substitution mechanism https://eips.ethereum.org/EIPS/eip-1155#metadata[defined in the EIP]. Clients calling this function must replace the `\\{id\\}` substring with the actual token type ID."
      }
    },
    "version": 1
  },
  "userdoc": {
    "kind": "user",
    "methods": {},
    "version": 1
  }
}